{
  "_format": "hh-sol-artifact-1",
  "contractName": "LMNTL",
  "sourceName": "contracts/LMNTL.sol",
  "abi": [
    {
      "inputs": [],
      "stateMutability": "nonpayable",
      "type": "constructor"
    },
    {
      "anonymous": false,
      "inputs": [
        {
          "indexed": true,
          "internalType": "address",
          "name": "account",
          "type": "address"
        },
        {
          "indexed": true,
          "internalType": "address",
          "name": "operator",
          "type": "address"
        },
        {
          "indexed": false,
          "internalType": "bool",
          "name": "approved",
          "type": "bool"
        }
      ],
      "name": "ApprovalForAll",
      "type": "event"
    },
    {
      "anonymous": false,
      "inputs": [
        {
          "indexed": true,
          "internalType": "address",
          "name": "operator",
          "type": "address"
        },
        {
          "indexed": true,
          "internalType": "address",
          "name": "from",
          "type": "address"
        },
        {
          "indexed": true,
          "internalType": "address",
          "name": "to",
          "type": "address"
        },
        {
          "indexed": false,
          "internalType": "uint256[]",
          "name": "ids",
          "type": "uint256[]"
        },
        {
          "indexed": false,
          "internalType": "uint256[]",
          "name": "values",
          "type": "uint256[]"
        }
      ],
      "name": "TransferBatch",
      "type": "event"
    },
    {
      "anonymous": false,
      "inputs": [
        {
          "indexed": true,
          "internalType": "address",
          "name": "operator",
          "type": "address"
        },
        {
          "indexed": true,
          "internalType": "address",
          "name": "from",
          "type": "address"
        },
        {
          "indexed": true,
          "internalType": "address",
          "name": "to",
          "type": "address"
        },
        {
          "indexed": false,
          "internalType": "uint256",
          "name": "id",
          "type": "uint256"
        },
        {
          "indexed": false,
          "internalType": "uint256",
          "name": "value",
          "type": "uint256"
        }
      ],
      "name": "TransferSingle",
      "type": "event"
    },
    {
      "anonymous": false,
      "inputs": [
        {
          "indexed": false,
          "internalType": "string",
          "name": "value",
          "type": "string"
        },
        {
          "indexed": true,
          "internalType": "uint256",
          "name": "id",
          "type": "uint256"
        }
      ],
      "name": "URI",
      "type": "event"
    },
    {
      "inputs": [],
      "name": "INTERFACE_ID_ERC1155",
      "outputs": [
        {
          "internalType": "string",
          "name": "",
          "type": "string"
        }
      ],
      "stateMutability": "view",
      "type": "function"
    },
    {
      "inputs": [
        {
          "internalType": "address",
          "name": "account",
          "type": "address"
        },
        {
          "internalType": "uint256",
          "name": "id",
          "type": "uint256"
        }
      ],
      "name": "balanceOf",
      "outputs": [
        {
          "internalType": "uint256",
          "name": "",
          "type": "uint256"
        }
      ],
      "stateMutability": "view",
      "type": "function"
    },
    {
      "inputs": [
        {
          "internalType": "address[]",
          "name": "accounts",
          "type": "address[]"
        },
        {
          "internalType": "uint256[]",
          "name": "ids",
          "type": "uint256[]"
        }
      ],
      "name": "balanceOfBatch",
      "outputs": [
        {
          "internalType": "uint256[]",
          "name": "",
          "type": "uint256[]"
        }
      ],
      "stateMutability": "view",
      "type": "function"
    },
    {
      "inputs": [
        {
          "internalType": "uint256",
          "name": "id",
          "type": "uint256"
        },
        {
          "internalType": "string",
          "name": "newImageURI",
          "type": "string"
        }
      ],
      "name": "changeImageURI",
      "outputs": [],
      "stateMutability": "nonpayable",
      "type": "function"
    },
    {
      "inputs": [
        {
          "internalType": "uint256",
          "name": "",
          "type": "uint256"
        }
      ],
      "name": "characters",
      "outputs": [
        {
          "internalType": "uint256",
          "name": "level",
          "type": "uint256"
        },
        {
          "internalType": "uint256",
          "name": "exp",
          "type": "uint256"
        },
        {
          "internalType": "uint256",
          "name": "creativity",
          "type": "uint256"
        },
        {
          "internalType": "uint256",
          "name": "cunning",
          "type": "uint256"
        },
        {
          "internalType": "uint256",
          "name": "charisma",
          "type": "uint256"
        },
        {
          "internalType": "uint256",
          "name": "patience",
          "type": "uint256"
        },
        {
          "internalType": "uint256",
          "name": "fire",
          "type": "uint256"
        },
        {
          "internalType": "uint256",
          "name": "water",
          "type": "uint256"
        },
        {
          "internalType": "uint256",
          "name": "air",
          "type": "uint256"
        },
        {
          "internalType": "uint256",
          "name": "earth",
          "type": "uint256"
        },
        {
          "internalType": "string",
          "name": "imageURI",
          "type": "string"
        }
      ],
      "stateMutability": "view",
      "type": "function"
    },
    {
      "inputs": [
        {
          "internalType": "uint256",
          "name": "_tokenId",
          "type": "uint256"
        }
      ],
      "name": "getMetadata",
      "outputs": [
        {
          "internalType": "string",
          "name": "",
          "type": "string"
        }
      ],
      "stateMutability": "view",
      "type": "function"
    },
    {
      "inputs": [
        {
          "internalType": "uint256",
          "name": "_tokenId",
          "type": "uint256"
        }
      ],
      "name": "getStats",
      "outputs": [
        {
          "internalType": "uint256",
          "name": "id",
          "type": "uint256"
        },
        {
          "internalType": "uint256",
          "name": "level",
          "type": "uint256"
        },
        {
          "internalType": "uint256",
          "name": "exp",
          "type": "uint256"
        },
        {
          "internalType": "uint256",
          "name": "creativity",
          "type": "uint256"
        },
        {
          "internalType": "uint256",
          "name": "cunning",
          "type": "uint256"
        },
        {
          "internalType": "uint256",
          "name": "charisma",
          "type": "uint256"
        },
        {
          "internalType": "uint256",
          "name": "patience",
          "type": "uint256"
        },
        {
          "internalType": "uint256",
          "name": "fire",
          "type": "uint256"
        },
        {
          "internalType": "uint256",
          "name": "water",
          "type": "uint256"
        },
        {
          "internalType": "uint256",
          "name": "air",
          "type": "uint256"
        },
        {
          "internalType": "uint256",
          "name": "earth",
          "type": "uint256"
        }
      ],
      "stateMutability": "view",
      "type": "function"
    },
    {
      "inputs": [
        {
          "internalType": "address",
          "name": "_userAddress",
          "type": "address"
        }
      ],
      "name": "getUserMetadata",
      "outputs": [
        {
          "internalType": "string",
          "name": "metadataUri",
          "type": "string"
        }
      ],
      "stateMutability": "view",
      "type": "function"
    },
    {
      "inputs": [
        {
          "internalType": "address",
          "name": "_userAddress",
          "type": "address"
        }
      ],
      "name": "getUserStats",
      "outputs": [
        {
          "internalType": "uint256",
          "name": "id",
          "type": "uint256"
        },
        {
          "internalType": "uint256",
          "name": "level",
          "type": "uint256"
        },
        {
          "internalType": "uint256",
          "name": "exp",
          "type": "uint256"
        },
        {
          "internalType": "uint256",
          "name": "creativity",
          "type": "uint256"
        },
        {
          "internalType": "uint256",
          "name": "cunning",
          "type": "uint256"
        },
        {
          "internalType": "uint256",
          "name": "charisma",
          "type": "uint256"
        },
        {
          "internalType": "uint256",
          "name": "patience",
          "type": "uint256"
        },
        {
          "internalType": "uint256",
          "name": "fire",
          "type": "uint256"
        },
        {
          "internalType": "uint256",
          "name": "water",
          "type": "uint256"
        },
        {
          "internalType": "uint256",
          "name": "air",
          "type": "uint256"
        },
        {
          "internalType": "uint256",
          "name": "earth",
          "type": "uint256"
        }
      ],
      "stateMutability": "view",
      "type": "function"
    },
    {
      "inputs": [
        {
          "internalType": "address",
          "name": "_userAddress",
          "type": "address"
        }
      ],
      "name": "getUserTokenID",
      "outputs": [
        {
          "internalType": "uint256",
          "name": "id",
          "type": "uint256"
        }
      ],
      "stateMutability": "view",
      "type": "function"
    },
    {
      "inputs": [
        {
          "internalType": "address",
          "name": "account",
          "type": "address"
        },
        {
          "internalType": "address",
          "name": "operator",
          "type": "address"
        }
      ],
      "name": "isApprovedForAll",
      "outputs": [
        {
          "internalType": "bool",
          "name": "",
          "type": "bool"
        }
      ],
      "stateMutability": "view",
      "type": "function"
    },
    {
      "inputs": [
        {
          "internalType": "uint256",
          "name": "_id",
          "type": "uint256"
        }
      ],
      "name": "isNonFungible",
      "outputs": [
        {
          "internalType": "bool",
          "name": "",
          "type": "bool"
        }
      ],
      "stateMutability": "pure",
      "type": "function"
    },
    {
      "inputs": [
        {
          "internalType": "address",
          "name": "_userAddress",
          "type": "address"
        },
        {
          "internalType": "string",
          "name": "imageURI",
          "type": "string"
        }
      ],
      "name": "levelUp",
      "outputs": [],
      "stateMutability": "nonpayable",
      "type": "function"
    },
    {
      "inputs": [
        {
          "internalType": "uint256",
          "name": "fire",
          "type": "uint256"
        },
        {
          "internalType": "uint256",
          "name": "water",
          "type": "uint256"
        },
        {
          "internalType": "uint256",
          "name": "air",
          "type": "uint256"
        },
        {
          "internalType": "uint256",
          "name": "earth",
          "type": "uint256"
        },
        {
          "internalType": "string",
          "name": "imageURI",
          "type": "string"
        }
      ],
      "name": "mint",
      "outputs": [
        {
          "internalType": "uint256",
          "name": "",
          "type": "uint256"
        }
      ],
      "stateMutability": "nonpayable",
      "type": "function"
    },
    {
      "inputs": [],
      "name": "nftCounter",
      "outputs": [
        {
          "internalType": "uint256",
          "name": "_value",
          "type": "uint256"
        }
      ],
      "stateMutability": "view",
      "type": "function"
    },
    {
      "inputs": [
        {
          "internalType": "uint256",
          "name": "max",
          "type": "uint256"
        }
      ],
      "name": "random",
      "outputs": [
        {
          "internalType": "uint256",
          "name": "randomInt",
          "type": "uint256"
        }
      ],
      "stateMutability": "view",
      "type": "function"
    },
    {
      "inputs": [
        {
          "internalType": "address",
          "name": "from",
          "type": "address"
        },
        {
          "internalType": "address",
          "name": "to",
          "type": "address"
        },
        {
          "internalType": "uint256[]",
          "name": "ids",
          "type": "uint256[]"
        },
        {
          "internalType": "uint256[]",
          "name": "amounts",
          "type": "uint256[]"
        },
        {
          "internalType": "bytes",
          "name": "data",
          "type": "bytes"
        }
      ],
      "name": "safeBatchTransferFrom",
      "outputs": [],
      "stateMutability": "nonpayable",
      "type": "function"
    },
    {
      "inputs": [
        {
          "internalType": "address",
          "name": "from",
          "type": "address"
        },
        {
          "internalType": "address",
          "name": "to",
          "type": "address"
        },
        {
          "internalType": "uint256",
          "name": "id",
          "type": "uint256"
        },
        {
          "internalType": "uint256",
          "name": "amount",
          "type": "uint256"
        },
        {
          "internalType": "bytes",
          "name": "data",
          "type": "bytes"
        }
      ],
      "name": "safeTransferFrom",
      "outputs": [],
      "stateMutability": "nonpayable",
      "type": "function"
    },
    {
      "inputs": [
        {
          "internalType": "address",
          "name": "operator",
          "type": "address"
        },
        {
          "internalType": "bool",
          "name": "approved",
          "type": "bool"
        }
      ],
      "name": "setApprovalForAll",
      "outputs": [],
      "stateMutability": "nonpayable",
      "type": "function"
    },
    {
      "inputs": [
        {
          "internalType": "uint256",
          "name": "_tokenId",
          "type": "uint256"
        },
        {
          "internalType": "string",
          "name": "_metadata",
          "type": "string"
        }
      ],
      "name": "setMetadata",
      "outputs": [],
      "stateMutability": "nonpayable",
      "type": "function"
    },
    {
      "inputs": [
        {
          "internalType": "bytes4",
          "name": "interfaceId",
          "type": "bytes4"
        }
      ],
      "name": "supportsInterface",
      "outputs": [
        {
          "internalType": "bool",
          "name": "",
          "type": "bool"
        }
      ],
      "stateMutability": "view",
      "type": "function"
    },
    {
      "inputs": [
        {
          "internalType": "uint256",
          "name": "",
          "type": "uint256"
        }
      ],
      "name": "tokenMetadata",
      "outputs": [
        {
          "internalType": "string",
          "name": "",
          "type": "string"
        }
      ],
      "stateMutability": "view",
      "type": "function"
    },
    {
      "inputs": [
        {
          "internalType": "address",
          "name": "",
          "type": "address"
        },
        {
          "internalType": "uint256",
          "name": "",
          "type": "uint256"
        }
      ],
      "name": "tokenOwners",
      "outputs": [
        {
          "internalType": "uint256",
          "name": "",
          "type": "uint256"
        }
      ],
      "stateMutability": "view",
      "type": "function"
    },
    {
      "inputs": [
        {
          "internalType": "uint256",
          "name": "id",
          "type": "uint256"
        },
        {
          "internalType": "uint256",
          "name": "level",
          "type": "uint256"
        },
        {
          "internalType": "uint256",
          "name": "exp",
          "type": "uint256"
        },
        {
          "internalType": "uint256",
          "name": "creativity",
          "type": "uint256"
        },
        {
          "internalType": "uint256",
          "name": "cunning",
          "type": "uint256"
        },
        {
          "internalType": "uint256",
          "name": "charisma",
          "type": "uint256"
        },
        {
          "internalType": "uint256",
          "name": "patience",
          "type": "uint256"
        },
        {
          "internalType": "uint256",
          "name": "fire",
          "type": "uint256"
        },
        {
          "internalType": "uint256",
          "name": "water",
          "type": "uint256"
        },
        {
          "internalType": "uint256",
          "name": "air",
          "type": "uint256"
        },
        {
          "internalType": "uint256",
          "name": "earth",
          "type": "uint256"
        }
      ],
      "name": "updateCharacter",
      "outputs": [],
      "stateMutability": "nonpayable",
      "type": "function"
    },
    {
      "inputs": [
        {
          "internalType": "uint256",
          "name": "",
          "type": "uint256"
        }
      ],
      "name": "uri",
      "outputs": [
        {
          "internalType": "string",
          "name": "",
          "type": "string"
        }
      ],
      "stateMutability": "view",
      "type": "function"
    }
  ],
  "bytecode": "0x60806040526040518060400160405280600581526020017f4c4d4e544c000000000000000000000000000000000000000000000000000000815250600390816200004a9190620003c9565b506040518060400160405280600581526020017f4c4d4e544c00000000000000000000000000000000000000000000000000000081525060049081620000919190620003c9565b503480156200009f57600080fd5b506040518060400160405280600a81526020017f3078373830653964363300000000000000000000000000000000000000000000815250620000e7816200013a60201b60201c565b5060038081620000f89190620004dd565b5060048081620001099190620004dd565b50620001346040518060800160405280604381526020016200496b604391396200013a60201b60201c565b620005de565b80600290816200014b9190620003c9565b5050565b600081519050919050565b7f4e487b7100000000000000000000000000000000000000000000000000000000600052604160045260246000fd5b7f4e487b7100000000000000000000000000000000000000000000000000000000600052602260045260246000fd5b60006002820490506001821680620001d157607f821691505b602082108103620001e757620001e662000189565b5b50919050565b60008190508160005260206000209050919050565b60006020601f8301049050919050565b600082821b905092915050565b600060088302620002517fffffffffffffffffffffffffffffffffffffffffffffffffffffffffffffffff8262000212565b6200025d868362000212565b95508019841693508086168417925050509392505050565b6000819050919050565b6000819050919050565b6000620002aa620002a46200029e8462000275565b6200027f565b62000275565b9050919050565b6000819050919050565b620002c68362000289565b620002de620002d582620002b1565b8484546200021f565b825550505050565b600090565b620002f5620002e6565b62000302818484620002bb565b505050565b5b818110156200032a576200031e600082620002eb565b60018101905062000308565b5050565b601f82111562000379576200034381620001ed565b6200034e8462000202565b810160208510156200035e578190505b620003766200036d8562000202565b83018262000307565b50505b505050565b600082821c905092915050565b60006200039e600019846008026200037e565b1980831691505092915050565b6000620003b983836200038b565b9150826002028217905092915050565b620003d4826200014f565b67ffffffffffffffff811115620003f057620003ef6200015a565b5b620003fc8254620001b8565b620004098282856200032e565b600060209050601f8311600181146200044157600084156200042c578287015190505b620004388582620003ab565b865550620004a8565b601f1984166200045186620001ed565b60005b828110156200047b5784890151825560018201915060208501945060208101905062000454565b868310156200049b578489015162000497601f8916826200038b565b8355505b6001600288020188555050505b505050505050565b600081549050620004c181620001b8565b9050919050565b60008190508160005260206000209050919050565b818103620004ed575050620005dc565b620004f882620004b0565b67ffffffffffffffff8111156200051457620005136200015a565b5b620005208254620001b8565b6200052d8282856200032e565b6000601f8311600181146200056157600084156200054c578287015490505b620005588582620003ab565b865550620005d5565b601f1984166200057187620004c8565b96506200057e86620001ed565b60005b82811015620005a85784890154825560018201915060018501945060208101905062000581565b86831015620005c85784890154620005c4601f8916826200038b565b8355505b6001600288020188555050505b5050505050505b565b61437d80620005ee6000396000f3fe608060405234801561001057600080fd5b50600436106101725760003560e01c80637b303965116100de578063d681d99111610097578063e574609e11610071578063e574609e146104fb578063e985e9c514610519578063ef2a876414610549578063f242432a1461057957610172565b8063d681d9911461047f578063dd63281b1461049b578063e44591f0146104cb57610172565b80637b3039651461037d5780638b5e51d2146103b7578063a22cb465146103e7578063a574cea414610403578063ac92ef4314610433578063b863bd371461044f57610172565b80634810bc59116101305780634810bc59146102715780634e1273f4146102ab5780634e43603a146102db578063593aa2831461031557806359fd58a6146103315780636914db601461034d57610172565b8062fdd58e1461017757806301ffc9a7146101a75780630e89341c146101d75780632eb2c2d61461020757806333bf615614610223578063423411b114610241575b600080fd5b610191600480360381019061018c919061289b565b610595565b60405161019e91906128ea565b60405180910390f35b6101c160048036038101906101bc919061295d565b61065d565b6040516101ce91906129a5565b60405180910390f35b6101f160048036038101906101ec91906129c0565b61073f565b6040516101fe9190612a7d565b60405180910390f35b610221600480360381019061021c9190612c9c565b6107d3565b005b61022b610874565b6040516102389190612a7d565b60405180910390f35b61025b60048036038101906102569190612d6b565b6108ad565b60405161026891906128ea565b60405180910390f35b61028b600480360381019061028691906129c0565b6109e2565b6040516102a29b9a99989796959493929190612d98565b60405180910390f35b6102c560048036038101906102c09190612f0d565b610ac4565b6040516102d29190613043565b60405180910390f35b6102f560048036038101906102f09190612d6b565b610bdd565b60405161030c9b9a99989796959493929190613065565b60405180910390f35b61032f600480360381019061032a91906131b1565b610c24565b005b61034b6004803603810190610346919061320d565b610c49565b005b610367600480360381019061036291906129c0565b611155565b6040516103749190612a7d565b60405180910390f35b610397600480360381019061039291906129c0565b6111f5565b6040516103ae9b9a99989796959493929190613065565b60405180910390f35b6103d160048036038101906103cc919061289b565b611312565b6040516103de91906128ea565b60405180910390f35b61040160048036038101906103fc9190613295565b611343565b005b61041d600480360381019061041891906129c0565b611359565b60405161042a9190612a7d565b60405180910390f35b61044d600480360381019061044891906131b1565b6113fe565b005b610469600480360381019061046491906129c0565b611477565b60405161047691906128ea565b60405180910390f35b610499600480360381019061049491906132d5565b6114c4565b005b6104b560048036038101906104b091906133c9565b611627565b6040516104c291906128ea565b60405180910390f35b6104e560048036038101906104e091906129c0565b61188e565b6040516104f291906129a5565b60405180910390f35b6105036118bc565b60405161051091906128ea565b60405180910390f35b610533600480360381019061052e9190613460565b6118c8565b60405161054091906129a5565b60405180910390f35b610563600480360381019061055e9190612d6b565b61195c565b6040516105709190612a7d565b60405180910390f35b610593600480360381019061058e91906134a0565b611976565b005b60008073ffffffffffffffffffffffffffffffffffffffff168373ffffffffffffffffffffffffffffffffffffffff1603610605576040517f08c379a00000000000000000000000000000000000000000000000000000000081526004016105fc906135a9565b60405180910390fd5b60008083815260200190815260200160002060008473ffffffffffffffffffffffffffffffffffffffff1673ffffffffffffffffffffffffffffffffffffffff16815260200190815260200160002054905092915050565b60007fd9b67a26000000000000000000000000000000000000000000000000000000007bffffffffffffffffffffffffffffffffffffffffffffffffffffffff1916827bffffffffffffffffffffffffffffffffffffffffffffffffffffffff1916148061072857507f0e89341c000000000000000000000000000000000000000000000000000000007bffffffffffffffffffffffffffffffffffffffffffffffffffffffff1916827bffffffffffffffffffffffffffffffffffffffffffffffffffffffff1916145b80610738575061073782611a17565b5b9050919050565b60606002805461074e906135f8565b80601f016020809104026020016040519081016040528092919081815260200182805461077a906135f8565b80156107c75780601f1061079c576101008083540402835291602001916107c7565b820191906000526020600020905b8154815290600101906020018083116107aa57829003601f168201915b50505050509050919050565b6107db611a81565b73ffffffffffffffffffffffffffffffffffffffff168573ffffffffffffffffffffffffffffffffffffffff16148061082157506108208561081b611a81565b6118c8565b5b610860576040517f08c379a00000000000000000000000000000000000000000000000000000000081526004016108579061369b565b60405180910390fd5b61086d8585858585611a89565b5050505050565b6040518060400160405280600a81526020017f307837383065396436330000000000000000000000000000000000000000000081525081565b600080600760008473ffffffffffffffffffffffffffffffffffffffff1673ffffffffffffffffffffffffffffffffffffffff16815260200190815260200160002080548060200260200160405190810160405280929190818152602001828054801561093957602002820191906000526020600020905b815481526020019060010190808311610925575b5050505050905060008151036109535760009150506109dd565b600081600081518110610969576109686136bb565b5b602002602001015190506000600190505b82518110156109d65781838281518110610997576109966136bb565b5b602002602001015111156109c3578281815181106109b8576109b76136bb565b5b602002602001015191505b80806109ce90613719565b91505061097a565b5080925050505b919050565b600560205280600052604060002060009150905080600001549080600101549080600201549080600301549080600401549080600501549080600601549080600701549080600801549080600901549080600a018054610a41906135f8565b80601f0160208091040260200160405190810160405280929190818152602001828054610a6d906135f8565b8015610aba5780601f10610a8f57610100808354040283529160200191610aba565b820191906000526020600020905b815481529060010190602001808311610a9d57829003601f168201915b505050505090508b565b60608151835114610b0a576040517f08c379a0000000000000000000000000000000000000000000000000000000008152600401610b01906137d3565b60405180910390fd5b6000835167ffffffffffffffff811115610b2757610b26612aa4565b5b604051908082528060200260200182016040528015610b555781602001602082028036833780820191505090505b50905060005b8451811015610bd257610ba2858281518110610b7a57610b796136bb565b5b6020026020010151858381518110610b9557610b946136bb565b5b6020026020010151610595565b828281518110610bb557610bb46136bb565b5b60200260200101818152505080610bcb90613719565b9050610b5b565b508091505092915050565b6000806000806000806000806000806000610bff610bfa8d6108ad565b6111f5565b9a509a509a509a509a509a509a509a509a509a509a5091939597999b90929496989a50565b80600860008481526020019081526020016000209081610c44919061399f565b505050565b6000610c54836108ad565b9050610c6081836113fe565b610c6a8183610c24565b6001600560008381526020019081526020016000206000016000828254610c919190613a71565b9250508190555060c860056000838152602001908152602001600020600001541860056000838152602001908152602001600020600001546103e8610cd69190613aa5565b610ce09190613a71565b600560008381526020019081526020016000206001016000828254610d059190613a71565b92505081905550610d3760056000838152602001908152602001600020600601546001610d329190613a71565b611477565b6005600083815260200190815260200160002060060154610d589190613a71565b600560008381526020019081526020016000206006016000828254610d7d9190613a71565b92505081905550610daf60056000838152602001908152602001600020600701546001610daa9190613a71565b611477565b6005600083815260200190815260200160002060070154610dd09190613a71565b600560008381526020019081526020016000206007016000828254610df59190613a71565b92505081905550610e2760056000838152602001908152602001600020600801546001610e229190613a71565b611477565b6005600083815260200190815260200160002060080154610e489190613a71565b600560008381526020019081526020016000206008016000828254610e6d9190613a71565b92505081905550610e9f60056000838152602001908152602001600020600901546001610e9a9190613a71565b611477565b6005600083815260200190815260200160002060090154610ec09190613a71565b600560008381526020019081526020016000206009016000828254610ee59190613a71565b92505081905550610f1760056000838152602001908152602001600020600701546003610f129190613a71565b611477565b60056000838152602001908152602001600020600701546005600084815260200190815260200160002060000154610f4f9190613a71565b610f599190613a71565b600560008381526020019081526020016000206002016000828254610f7e9190613a71565b92505081905550610fb060056000838152602001908152602001600020600801546003610fab9190613a71565b611477565b60056000838152602001908152602001600020600801546005600084815260200190815260200160002060000154610fe89190613a71565b610ff29190613a71565b6005600083815260200190815260200160002060030160008282546110179190613a71565b92505081905550611049600560008381526020019081526020016000206006015460036110449190613a71565b611477565b600560008381526020019081526020016000206006015460056000848152602001908152602001600020600001546110819190613a71565b61108b9190613a71565b6005600083815260200190815260200160002060040160008282546110b09190613a71565b925050819055506110e2600560008381526020019081526020016000206009015460036110dd9190613a71565b611477565b6005600083815260200190815260200160002060090154600560008481526020019081526020016000206000015461111a9190613a71565b6111249190613a71565b6005600083815260200190815260200160002060050160008282546111499190613a71565b92505081905550505050565b60086020528060005260406000206000915090508054611174906135f8565b80601f01602080910402602001604051908101604052809291908181526020018280546111a0906135f8565b80156111ed5780601f106111c2576101008083540402835291602001916111ed565b820191906000526020600020905b8154815290600101906020018083116111d057829003601f168201915b505050505081565b60008060008060008060008060008060008b9a50600560008c8152602001908152602001600020600001549950600560008c8152602001908152602001600020600101549850600560008c8152602001908152602001600020600201549750600560008c8152602001908152602001600020600301549650600560008c8152602001908152602001600020600401549550600560008c8152602001908152602001600020600501549450600560008c8152602001908152602001600020600601549350600560008c8152602001908152602001600020600701549250600560008c8152602001908152602001600020600801549150600560008c815260200190815260200160002060090154905091939597999b90929496989a50565b6007602052816000526040600020818154811061132e57600080fd5b90600052602060002001600091509150505481565b61135561134e611a81565b8383611daa565b5050565b6060600860008381526020019081526020016000208054611379906135f8565b80601f01602080910402602001604051908101604052809291908181526020018280546113a5906135f8565b80156113f25780601f106113c7576101008083540402835291602001916113f2565b820191906000526020600020905b8154815290600101906020018083116113d557829003601f168201915b50505050509050919050565b6114078261188e565b611446576040517f08c379a000000000000000000000000000000000000000000000000000000000815260040161143d90613b33565b60405180910390fd5b8060056000848152602001908152602001600020600a019081611469919061399f565b5061147381611f16565b5050565b600081426001436114889190613b53565b4060405160200161149a929190613bd3565b6040516020818303038152906040528051906020012060001c6114bd9190613c2e565b9050919050565b6114cd8b61188e565b61150c576040517f08c379a000000000000000000000000000000000000000000000000000000000815260040161150390613b33565b60405180910390fd5b89600560008d81526020019081526020016000206000018190555088600560008d81526020019081526020016000206001018190555087600560008d81526020019081526020016000206002018190555086600560008d81526020019081526020016000206003018190555085600560008d81526020019081526020016000206004018190555084600560008d81526020019081526020016000206005018190555083600560008d81526020019081526020016000206006018190555082600560008d81526020019081526020016000206007018190555081600560008d81526020019081526020016000206008018190555080600560008d8152602001908152602001600020600901819055505050505050505050505050565b60006116336006611f29565b600061163f6006611f3f565b9050600760003373ffffffffffffffffffffffffffffffffffffffff1673ffffffffffffffffffffffffffffffffffffffff1681526020019081526020016000208190806001815401808255809150506001900390600052602060002001600090919091909150556116d43382600160006040516020016116c09190613ca7565b604051602081830303815290604052611f4d565b6116dd83611f16565b6116e78184610c24565b604051806101600160405280600181526020016000815260200160028861170e9190613aa5565b6117186001611477565b60016117249190613a71565b61172e9190613a71565b81526020016002876117409190613aa5565b61174a6001611477565b60016117569190613a71565b6117609190613a71565b81526020016002896117729190613aa5565b61177c6001611477565b60016117889190613a71565b6117929190613a71565b81526020016002866117a49190613aa5565b6117ae6001611477565b60016117ba9190613a71565b6117c49190613a71565b81526020018881526020018781526020018681526020018581526020018481525060056000838152602001908152602001600020600082015181600001556020820151816001015560408201518160020155606082015181600301556080820151816004015560a0820151816005015560c0820151816006015560e082015181600701556101008201518160080155610120820151816009015561014082015181600a019081611874919061399f565b509050506118826006611f3f565b91505095945050505050565b60007f8000000000000000000000000000000000000000000000000000000000000000808316149050919050565b60068060000154905081565b6000600160008473ffffffffffffffffffffffffffffffffffffffff1673ffffffffffffffffffffffffffffffffffffffff16815260200190815260200160002060008373ffffffffffffffffffffffffffffffffffffffff1673ffffffffffffffffffffffffffffffffffffffff16815260200190815260200160002060009054906101000a900460ff16905092915050565b606061196f61196a836108ad565b611359565b9050919050565b61197e611a81565b73ffffffffffffffffffffffffffffffffffffffff168573ffffffffffffffffffffffffffffffffffffffff1614806119c457506119c3856119be611a81565b6118c8565b5b611a03576040517f08c379a00000000000000000000000000000000000000000000000000000000081526004016119fa9061369b565b60405180910390fd5b611a1085858585856120fd565b5050505050565b60007f01ffc9a7000000000000000000000000000000000000000000000000000000007bffffffffffffffffffffffffffffffffffffffffffffffffffffffff1916827bffffffffffffffffffffffffffffffffffffffffffffffffffffffff1916149050919050565b600033905090565b8151835114611acd576040517f08c379a0000000000000000000000000000000000000000000000000000000008152600401611ac490613d34565b60405180910390fd5b600073ffffffffffffffffffffffffffffffffffffffff168473ffffffffffffffffffffffffffffffffffffffff1603611b3c576040517f08c379a0000000000000000000000000000000000000000000000000000000008152600401611b3390613dc6565b60405180910390fd5b6000611b46611a81565b9050611b56818787878787612398565b60005b8451811015611d07576000858281518110611b7757611b766136bb565b5b602002602001015190506000858381518110611b9657611b956136bb565b5b60200260200101519050600080600084815260200190815260200160002060008b73ffffffffffffffffffffffffffffffffffffffff1673ffffffffffffffffffffffffffffffffffffffff16815260200190815260200160002054905081811015611c37576040517f08c379a0000000000000000000000000000000000000000000000000000000008152600401611c2e90613e58565b60405180910390fd5b81810360008085815260200190815260200160002060008c73ffffffffffffffffffffffffffffffffffffffff1673ffffffffffffffffffffffffffffffffffffffff168152602001908152602001600020819055508160008085815260200190815260200160002060008b73ffffffffffffffffffffffffffffffffffffffff1673ffffffffffffffffffffffffffffffffffffffff1681526020019081526020016000206000828254611cec9190613a71565b9250508190555050505080611d0090613719565b9050611b59565b508473ffffffffffffffffffffffffffffffffffffffff168673ffffffffffffffffffffffffffffffffffffffff168273ffffffffffffffffffffffffffffffffffffffff167f4a39dc06d4c0dbc64b70af90fd698a233a518aa5d07e595d983b8c0526c8f7fb8787604051611d7e929190613e78565b60405180910390a4611d948187878787876123a0565b611da28187878787876123a8565b505050505050565b8173ffffffffffffffffffffffffffffffffffffffff168373ffffffffffffffffffffffffffffffffffffffff1603611e18576040517f08c379a0000000000000000000000000000000000000000000000000000000008152600401611e0f90613f21565b60405180910390fd5b80600160008573ffffffffffffffffffffffffffffffffffffffff1673ffffffffffffffffffffffffffffffffffffffff16815260200190815260200160002060008473ffffffffffffffffffffffffffffffffffffffff1673ffffffffffffffffffffffffffffffffffffffff16815260200190815260200160002060006101000a81548160ff0219169083151502179055508173ffffffffffffffffffffffffffffffffffffffff168373ffffffffffffffffffffffffffffffffffffffff167f17307eab39ab6107e8899845ad3d59bd9653f200f220920489ca2b5937696c3183604051611f0991906129a5565b60405180910390a3505050565b8060029081611f25919061399f565b5050565b6001816000016000828254019250508190555050565b600081600001549050919050565b600073ffffffffffffffffffffffffffffffffffffffff168473ffffffffffffffffffffffffffffffffffffffff1603611fbc576040517f08c379a0000000000000000000000000000000000000000000000000000000008152600401611fb390613fb3565b60405180910390fd5b6000611fc6611a81565b90506000611fd38561257f565b90506000611fe08561257f565b9050611ff183600089858589612398565b8460008088815260200190815260200160002060008973ffffffffffffffffffffffffffffffffffffffff1673ffffffffffffffffffffffffffffffffffffffff16815260200190815260200160002060008282546120509190613a71565b925050819055508673ffffffffffffffffffffffffffffffffffffffff16600073ffffffffffffffffffffffffffffffffffffffff168473ffffffffffffffffffffffffffffffffffffffff167fc3d58168c5ae7397731d063d5bbf3d657854427343f4c083240f7aacaa2d0f6289896040516120ce929190613fd3565b60405180910390a46120e5836000898585896123a0565b6120f4836000898989896125f9565b50505050505050565b600073ffffffffffffffffffffffffffffffffffffffff168473ffffffffffffffffffffffffffffffffffffffff160361216c576040517f08c379a000000000000000000000000000000000000000000000000000000000815260040161216390613dc6565b60405180910390fd5b6000612176611a81565b905060006121838561257f565b905060006121908561257f565b90506121a0838989858589612398565b600080600088815260200190815260200160002060008a73ffffffffffffffffffffffffffffffffffffffff1673ffffffffffffffffffffffffffffffffffffffff16815260200190815260200160002054905085811015612237576040517f08c379a000000000000000000000000000000000000000000000000000000000815260040161222e90613e58565b60405180910390fd5b85810360008089815260200190815260200160002060008b73ffffffffffffffffffffffffffffffffffffffff1673ffffffffffffffffffffffffffffffffffffffff168152602001908152602001600020819055508560008089815260200190815260200160002060008a73ffffffffffffffffffffffffffffffffffffffff1673ffffffffffffffffffffffffffffffffffffffff16815260200190815260200160002060008282546122ec9190613a71565b925050819055508773ffffffffffffffffffffffffffffffffffffffff168973ffffffffffffffffffffffffffffffffffffffff168573ffffffffffffffffffffffffffffffffffffffff167fc3d58168c5ae7397731d063d5bbf3d657854427343f4c083240f7aacaa2d0f628a8a604051612369929190613fd3565b60405180910390a461237f848a8a86868a6123a0565b61238d848a8a8a8a8a6125f9565b505050505050505050565b505050505050565b505050505050565b6123c78473ffffffffffffffffffffffffffffffffffffffff166127d0565b15612577578373ffffffffffffffffffffffffffffffffffffffff1663bc197c8187878686866040518663ffffffff1660e01b815260040161240d959493929190614060565b6020604051808303816000875af192505050801561244957506040513d601f19601f8201168201806040525081019061244691906140dd565b60015b6124ee57612455614117565b806308c379a0036124b15750612469614139565b8061247457506124b3565b806040517f08c379a00000000000000000000000000000000000000000000000000000000081526004016124a89190612a7d565b60405180910390fd5b505b6040517f08c379a00000000000000000000000000000000000000000000000000000000081526004016124e59061423b565b60405180910390fd5b63bc197c8160e01b7bffffffffffffffffffffffffffffffffffffffffffffffffffffffff1916817bffffffffffffffffffffffffffffffffffffffffffffffffffffffff191614612575576040517f08c379a000000000000000000000000000000000000000000000000000000000815260040161256c906142cd565b60405180910390fd5b505b505050505050565b60606000600167ffffffffffffffff81111561259e5761259d612aa4565b5b6040519080825280602002602001820160405280156125cc5781602001602082028036833780820191505090505b50905082816000815181106125e4576125e36136bb565b5b60200260200101818152505080915050919050565b6126188473ffffffffffffffffffffffffffffffffffffffff166127d0565b156127c8578373ffffffffffffffffffffffffffffffffffffffff1663f23a6e6187878686866040518663ffffffff1660e01b815260040161265e9594939291906142ed565b6020604051808303816000875af192505050801561269a57506040513d601f19601f8201168201806040525081019061269791906140dd565b60015b61273f576126a6614117565b806308c379a00361270257506126ba614139565b806126c55750612704565b806040517f08c379a00000000000000000000000000000000000000000000000000000000081526004016126f99190612a7d565b60405180910390fd5b505b6040517f08c379a00000000000000000000000000000000000000000000000000000000081526004016127369061423b565b60405180910390fd5b63f23a6e6160e01b7bffffffffffffffffffffffffffffffffffffffffffffffffffffffff1916817bffffffffffffffffffffffffffffffffffffffffffffffffffffffff1916146127c6576040517f08c379a00000000000000000000000000000000000000000000000000000000081526004016127bd906142cd565b60405180910390fd5b505b505050505050565b6000808273ffffffffffffffffffffffffffffffffffffffff163b119050919050565b6000604051905090565b600080fd5b600080fd5b600073ffffffffffffffffffffffffffffffffffffffff82169050919050565b600061283282612807565b9050919050565b61284281612827565b811461284d57600080fd5b50565b60008135905061285f81612839565b92915050565b6000819050919050565b61287881612865565b811461288357600080fd5b50565b6000813590506128958161286f565b92915050565b600080604083850312156128b2576128b16127fd565b5b60006128c085828601612850565b92505060206128d185828601612886565b9150509250929050565b6128e481612865565b82525050565b60006020820190506128ff60008301846128db565b92915050565b60007fffffffff0000000000000000000000000000000000000000000000000000000082169050919050565b61293a81612905565b811461294557600080fd5b50565b60008135905061295781612931565b92915050565b600060208284031215612973576129726127fd565b5b600061298184828501612948565b91505092915050565b60008115159050919050565b61299f8161298a565b82525050565b60006020820190506129ba6000830184612996565b92915050565b6000602082840312156129d6576129d56127fd565b5b60006129e484828501612886565b91505092915050565b600081519050919050565b600082825260208201905092915050565b60005b83811015612a27578082015181840152602081019050612a0c565b60008484015250505050565b6000601f19601f8301169050919050565b6000612a4f826129ed565b612a5981856129f8565b9350612a69818560208601612a09565b612a7281612a33565b840191505092915050565b60006020820190508181036000830152612a978184612a44565b905092915050565b600080fd5b7f4e487b7100000000000000000000000000000000000000000000000000000000600052604160045260246000fd5b612adc82612a33565b810181811067ffffffffffffffff82111715612afb57612afa612aa4565b5b80604052505050565b6000612b0e6127f3565b9050612b1a8282612ad3565b919050565b600067ffffffffffffffff821115612b3a57612b39612aa4565b5b602082029050602081019050919050565b600080fd5b6000612b63612b5e84612b1f565b612b04565b90508083825260208201905060208402830185811115612b8657612b85612b4b565b5b835b81811015612baf5780612b9b8882612886565b845260208401935050602081019050612b88565b5050509392505050565b600082601f830112612bce57612bcd612a9f565b5b8135612bde848260208601612b50565b91505092915050565b600080fd5b600067ffffffffffffffff821115612c0757612c06612aa4565b5b612c1082612a33565b9050602081019050919050565b82818337600083830152505050565b6000612c3f612c3a84612bec565b612b04565b905082815260208101848484011115612c5b57612c5a612be7565b5b612c66848285612c1d565b509392505050565b600082601f830112612c8357612c82612a9f565b5b8135612c93848260208601612c2c565b91505092915050565b600080600080600060a08688031215612cb857612cb76127fd565b5b6000612cc688828901612850565b9550506020612cd788828901612850565b945050604086013567ffffffffffffffff811115612cf857612cf7612802565b5b612d0488828901612bb9565b935050606086013567ffffffffffffffff811115612d2557612d24612802565b5b612d3188828901612bb9565b925050608086013567ffffffffffffffff811115612d5257612d51612802565b5b612d5e88828901612c6e565b9150509295509295909350565b600060208284031215612d8157612d806127fd565b5b6000612d8f84828501612850565b91505092915050565b600061016082019050612dae600083018e6128db565b612dbb602083018d6128db565b612dc8604083018c6128db565b612dd5606083018b6128db565b612de2608083018a6128db565b612def60a08301896128db565b612dfc60c08301886128db565b612e0960e08301876128db565b612e176101008301866128db565b612e256101208301856128db565b818103610140830152612e388184612a44565b90509c9b505050505050505050505050565b600067ffffffffffffffff821115612e6557612e64612aa4565b5b602082029050602081019050919050565b6000612e89612e8484612e4a565b612b04565b90508083825260208201905060208402830185811115612eac57612eab612b4b565b5b835b81811015612ed55780612ec18882612850565b845260208401935050602081019050612eae565b5050509392505050565b600082601f830112612ef457612ef3612a9f565b5b8135612f04848260208601612e76565b91505092915050565b60008060408385031215612f2457612f236127fd565b5b600083013567ffffffffffffffff811115612f4257612f41612802565b5b612f4e85828601612edf565b925050602083013567ffffffffffffffff811115612f6f57612f6e612802565b5b612f7b85828601612bb9565b9150509250929050565b600081519050919050565b600082825260208201905092915050565b6000819050602082019050919050565b612fba81612865565b82525050565b6000612fcc8383612fb1565b60208301905092915050565b6000602082019050919050565b6000612ff082612f85565b612ffa8185612f90565b935061300583612fa1565b8060005b8381101561303657815161301d8882612fc0565b975061302883612fd8565b925050600181019050613009565b5085935050505092915050565b6000602082019050818103600083015261305d8184612fe5565b905092915050565b60006101608201905061307b600083018e6128db565b613088602083018d6128db565b613095604083018c6128db565b6130a2606083018b6128db565b6130af608083018a6128db565b6130bc60a08301896128db565b6130c960c08301886128db565b6130d660e08301876128db565b6130e46101008301866128db565b6130f26101208301856128db565b6131006101408301846128db565b9c9b505050505050505050505050565b600067ffffffffffffffff82111561312b5761312a612aa4565b5b61313482612a33565b9050602081019050919050565b600061315461314f84613110565b612b04565b9050828152602081018484840111156131705761316f612be7565b5b61317b848285612c1d565b509392505050565b600082601f83011261319857613197612a9f565b5b81356131a8848260208601613141565b91505092915050565b600080604083850312156131c8576131c76127fd565b5b60006131d685828601612886565b925050602083013567ffffffffffffffff8111156131f7576131f6612802565b5b61320385828601613183565b9150509250929050565b60008060408385031215613224576132236127fd565b5b600061323285828601612850565b925050602083013567ffffffffffffffff81111561325357613252612802565b5b61325f85828601613183565b9150509250929050565b6132728161298a565b811461327d57600080fd5b50565b60008135905061328f81613269565b92915050565b600080604083850312156132ac576132ab6127fd565b5b60006132ba85828601612850565b92505060206132cb85828601613280565b9150509250929050565b60008060008060008060008060008060006101608c8e0312156132fb576132fa6127fd565b5b60006133098e828f01612886565b9b5050602061331a8e828f01612886565b9a5050604061332b8e828f01612886565b995050606061333c8e828f01612886565b985050608061334d8e828f01612886565b97505060a061335e8e828f01612886565b96505060c061336f8e828f01612886565b95505060e06133808e828f01612886565b9450506101006133928e828f01612886565b9350506101206133a48e828f01612886565b9250506101406133b68e828f01612886565b9150509295989b509295989b9093969950565b600080600080600060a086880312156133e5576133e46127fd565b5b60006133f388828901612886565b955050602061340488828901612886565b945050604061341588828901612886565b935050606061342688828901612886565b925050608086013567ffffffffffffffff81111561344757613446612802565b5b61345388828901613183565b9150509295509295909350565b60008060408385031215613477576134766127fd565b5b600061348585828601612850565b925050602061349685828601612850565b9150509250929050565b600080600080600060a086880312156134bc576134bb6127fd565b5b60006134ca88828901612850565b95505060206134db88828901612850565b94505060406134ec88828901612886565b93505060606134fd88828901612886565b925050608086013567ffffffffffffffff81111561351e5761351d612802565b5b61352a88828901612c6e565b9150509295509295909350565b7f455243313135353a2061646472657373207a65726f206973206e6f742061207660008201527f616c6964206f776e657200000000000000000000000000000000000000000000602082015250565b6000613593602a836129f8565b915061359e82613537565b604082019050919050565b600060208201905081810360008301526135c281613586565b9050919050565b7f4e487b7100000000000000000000000000000000000000000000000000000000600052602260045260246000fd5b6000600282049050600182168061361057607f821691505b602082108103613623576136226135c9565b5b50919050565b7f455243313135353a2063616c6c6572206973206e6f7420746f6b656e206f776e60008201527f6572206f7220617070726f766564000000000000000000000000000000000000602082015250565b6000613685602e836129f8565b915061369082613629565b604082019050919050565b600060208201905081810360008301526136b481613678565b9050919050565b7f4e487b7100000000000000000000000000000000000000000000000000000000600052603260045260246000fd5b7f4e487b7100000000000000000000000000000000000000000000000000000000600052601160045260246000fd5b600061372482612865565b91507fffffffffffffffffffffffffffffffffffffffffffffffffffffffffffffffff8203613756576137556136ea565b5b600182019050919050565b7f455243313135353a206163636f756e747320616e6420696473206c656e67746860008201527f206d69736d617463680000000000000000000000000000000000000000000000602082015250565b60006137bd6029836129f8565b91506137c882613761565b604082019050919050565b600060208201905081810360008301526137ec816137b0565b9050919050565b60008190508160005260206000209050919050565b60006020601f8301049050919050565b600082821b905092915050565b6000600883026138557fffffffffffffffffffffffffffffffffffffffffffffffffffffffffffffffff82613818565b61385f8683613818565b95508019841693508086168417925050509392505050565b6000819050919050565b600061389c61389761389284612865565b613877565b612865565b9050919050565b6000819050919050565b6138b683613881565b6138ca6138c2826138a3565b848454613825565b825550505050565b600090565b6138df6138d2565b6138ea8184846138ad565b505050565b5b8181101561390e576139036000826138d7565b6001810190506138f0565b5050565b601f82111561395357613924816137f3565b61392d84613808565b8101602085101561393c578190505b61395061394885613808565b8301826138ef565b50505b505050565b600082821c905092915050565b600061397660001984600802613958565b1980831691505092915050565b600061398f8383613965565b9150826002028217905092915050565b6139a8826129ed565b67ffffffffffffffff8111156139c1576139c0612aa4565b5b6139cb82546135f8565b6139d6828285613912565b600060209050601f831160018114613a0957600084156139f7578287015190505b613a018582613983565b865550613a69565b601f198416613a17866137f3565b60005b82811015613a3f57848901518255600182019150602085019450602081019050613a1a565b86831015613a5c5784890151613a58601f891682613965565b8355505b6001600288020188555050505b505050505050565b6000613a7c82612865565b9150613a8783612865565b9250828201905080821115613a9f57613a9e6136ea565b5b92915050565b6000613ab082612865565b9150613abb83612865565b9250828202613ac981612865565b91508282048414831517613ae057613adf6136ea565b5b5092915050565b7f546865204e465420646f6573206e6f7420657869737400000000000000000000600082015250565b6000613b1d6016836129f8565b9150613b2882613ae7565b602082019050919050565b60006020820190508181036000830152613b4c81613b10565b9050919050565b6000613b5e82612865565b9150613b6983612865565b9250828203905081811115613b8157613b806136ea565b5b92915050565b6000819050919050565b613ba2613b9d82612865565b613b87565b82525050565b6000819050919050565b6000819050919050565b613bcd613bc882613ba8565b613bb2565b82525050565b6000613bdf8285613b91565b602082019150613bef8284613bbc565b6020820191508190509392505050565b7f4e487b7100000000000000000000000000000000000000000000000000000000600052601260045260246000fd5b6000613c3982612865565b9150613c4483612865565b925082613c5457613c53613bff565b5b828206905092915050565b6000819050919050565b600060ff82169050919050565b6000613c91613c8c613c8784613c5f565b613877565b613c69565b9050919050565b613ca181613c76565b82525050565b6000602082019050613cbc6000830184613c98565b92915050565b7f455243313135353a2069647320616e6420616d6f756e7473206c656e6774682060008201527f6d69736d61746368000000000000000000000000000000000000000000000000602082015250565b6000613d1e6028836129f8565b9150613d2982613cc2565b604082019050919050565b60006020820190508181036000830152613d4d81613d11565b9050919050565b7f455243313135353a207472616e7366657220746f20746865207a65726f20616460008201527f6472657373000000000000000000000000000000000000000000000000000000602082015250565b6000613db06025836129f8565b9150613dbb82613d54565b604082019050919050565b60006020820190508181036000830152613ddf81613da3565b9050919050565b7f455243313135353a20696e73756666696369656e742062616c616e636520666f60008201527f72207472616e7366657200000000000000000000000000000000000000000000602082015250565b6000613e42602a836129f8565b9150613e4d82613de6565b604082019050919050565b60006020820190508181036000830152613e7181613e35565b9050919050565b60006040820190508181036000830152613e928185612fe5565b90508181036020830152613ea68184612fe5565b90509392505050565b7f455243313135353a2073657474696e6720617070726f76616c2073746174757360008201527f20666f722073656c660000000000000000000000000000000000000000000000602082015250565b6000613f0b6029836129f8565b9150613f1682613eaf565b604082019050919050565b60006020820190508181036000830152613f3a81613efe565b9050919050565b7f455243313135353a206d696e7420746f20746865207a65726f2061646472657360008201527f7300000000000000000000000000000000000000000000000000000000000000602082015250565b6000613f9d6021836129f8565b9150613fa882613f41565b604082019050919050565b60006020820190508181036000830152613fcc81613f90565b9050919050565b6000604082019050613fe860008301856128db565b613ff560208301846128db565b9392505050565b61400581612827565b82525050565b600081519050919050565b600082825260208201905092915050565b60006140328261400b565b61403c8185614016565b935061404c818560208601612a09565b61405581612a33565b840191505092915050565b600060a0820190506140756000830188613ffc565b6140826020830187613ffc565b81810360408301526140948186612fe5565b905081810360608301526140a88185612fe5565b905081810360808301526140bc8184614027565b90509695505050505050565b6000815190506140d781612931565b92915050565b6000602082840312156140f3576140f26127fd565b5b6000614101848285016140c8565b91505092915050565b60008160e01c9050919050565b600060033d11156141365760046000803e61413360005161410a565b90505b90565b600060443d106141c65761414b6127f3565b60043d036004823e80513d602482011167ffffffffffffffff821117156141735750506141c6565b808201805167ffffffffffffffff81111561419157505050506141c6565b80602083010160043d0385018111156141ae5750505050506141c6565b6141bd82602001850186612ad3565b82955050505050505b90565b7f455243313135353a207472616e7366657220746f206e6f6e2d4552433131353560008201527f526563656976657220696d706c656d656e746572000000000000000000000000602082015250565b60006142256034836129f8565b9150614230826141c9565b604082019050919050565b6000602082019050818103600083015261425481614218565b9050919050565b7f455243313135353a204552433131353552656365697665722072656a6563746560008201527f6420746f6b656e73000000000000000000000000000000000000000000000000602082015250565b60006142b76028836129f8565b91506142c28261425b565b604082019050919050565b600060208201905081810360008301526142e6816142aa565b9050919050565b600060a0820190506143026000830188613ffc565b61430f6020830187613ffc565b61431c60408301866128db565b61432960608301856128db565b818103608083015261433b8184614027565b9050969550505050505056fea2646970667358221220836c5f06b14200405ff3846f3639090ee651b8b27e6756e4ba7f45b1304067f964736f6c6343000811003368747470733a2f2f697066732e696f2f697066732f516d63334c35544673466f517151427055584c67744e7745435872505855384d644136545a56375a45576b4d6d66",
  "linkReferences": {},
  "deployedLinkReferences": {}
}